S01300004379626F72675F4143555F412E733139A3
S1132800C05F002001980000939C0000939C00008E
S113281000000000939C0000939C00000000000056
S1132820000000000000000000000000939C000075
S1132830939C000000000000E9C80000C5BE000031
S1132840939C0000939C0000939C0000939C0000C8
S1132850939C0000939C0000939C0000E96E02008E
S113286015AE000041AE0000EDA50200EFA5020088
S113287041090100F1090100110A0100939C0000C3
S1132880939C0000876F02000D7002009370020099
S1132890B5A30200939C0000939C0000939C00004D
S11328A0939C0000939C00002B6F0200939C0000FB
S11328B0939C0000939C0000939C0000939C000058
S11328C070474078002800D0401E0870C0B200282D
S11328D001D102207047002070470878022803DBEA
S11328E0401E0870012070470020087002207047C5
S11328F0032070470020704730B401210022036890
S1132900001D002B0BD00468001D0C4202D04D4664
S11329106D1E64192260241D1B1FF0D0FAE730BC21
S113292070470000C3788278417800781B021A430C
S113293009021204084310437047000110B5254CE6
S1132940A0892549884213D12378012200214120FE
S113295006F04EF863689BB201221146412006F04E
S113296047F8A3689BB201220221412006F040F8F7
S113297000221021200006F0FBFA10BD38B50D002E
S11329801400010001D01D2914D1030001220021EB
S1132990412006F02DF82B009BB201221146412064
S11329A006F026F823009BB201220221412006F002
S11329B01FF831BD290000F001F831BD80B5054B89
S11329C0187059609A6004489881002007F075F9DE
S11329D001BD000018E6FF1F51DE000030B40023E3
S11329E007A403E0CD5C4540605D5B1CDBB2934211
S11329F0F8D330BC7047000001A24140505C7047DE
S1132A0000316253C4F5A697B988DBEA7D4C1F2ECA
S1132A104372211087B6E5D4FACB98A93E0F5C6DBA
S1132A2086B7E4D5427320113F0E5D6CFBCA99A8AA
S1132A30C5F4A796013063527C4D1E2FB889DAEB9A
S1132A403D0C5F6EF9C89BAA84B5E6D7407122138A
S1132A507E4F1C2DBA8BD8E9C7F6A594033261507A
S1132A60BB8AD9E87F4E1D2C02336051C6F7A4956A
S1132A70F8C99AAB3C0D5E6F4170231285B4E7D65A
S1132A807A4B1829BE8FDCEDC3F2A190073665544A
S1132A9039085B6AFDCC9FAE80B1E2D3447526173A
S1132AA0FCCD9EAF38095A6B4574271681B0E3D22A
S1132AB0BF8EDDEC7B4A192806376455C2F3A0911A
S1132AC04776251483B2E1D0FECF9CAD3A0B58690A
S1132AD004356657C0F1A293BD8CDFEE79481B2AFA
S1132AE0C1F0A3920534675678491A2BBC8DDEEFEA
S1132AF082B3E0D1467724153B0A5968FFCE9DACDA
S1132B007047000000180ED2010E7F390BD44942E1
S1132B101F3105D4C0010122D2071043C8407047B9
S1132B200020401E7047002070470000010203048B
S1132B3005060C0708090A0D0118151A19020405DF
S1132B40060708090A0B0C0D0E0F101112131B00B7
S1132B50010203070C0A090E0F10111213141516A3
S1132B601718191A1B1C1D1E1F2021222324252679
S1132B702728292A2B2C2D2E0102030405060700E1
S1072B800102030443
S1132B84FFFFFFFFFFFFFFFFFFFFFFFFFFFFFFFF4D
S1132B94FFFFFFFFFFFFFFFFFFFFFFFFFFFFFFFF3D
S1132BA4FFFFFFFFFFFFFFFFFFFFFFFFFFFFFFFF2D
S1132BB4FFFFFFFFFFFFFFFFFFFFFFFFFFFFFFFF1D
S1132BC4FFFFFFFFFFFFFFFFFFFFFFFFFFFFFFFF0D
S1132BD4FFFFFFFFFFFFFFFFFFFFFFFFFFFFFFFFFD
S1132BE4FFFFFFFFFFFFFFFFFFFFFFFFFFFFFFFFED
S1132BF4FFFFFFFFFFFFFFFFFFFFFFFFFFFFFFFFDD
S10F2C04FFFFFFFFFFFFFFFFFFFFFFFFCC
S1132C100DF0ADBA0DF0ADBA0DF0ADBA002800005C
S1132C20FB3F0300FC3F0300EFBEADDEEFBEADDEB5
S1072C30EFBEADDE64
S1132C341CB502F0F3F9FFF741FEB34CFF206071B9
S1132C44012020700146032002F0D0FF01F006F9B0
S1132C5401F030FA01F0A1FB6079FF280CD0BD49E2
S1132C64C00008188179019141790091037942786F
S1132C740178C07803F044F800F034FF01F034FD27
S1132C8400F02CFE00F0C2F90421032002F0AEFF90
S1132C9403F054F91321032002F0A8FF13BD80B5F7
S1132CA403F023F9401E8041C043C00F02BDF8B5B0
S1132CB40027954E310036313000C01C03F037FB39
S1132CC4002826D13C0020E0A348E100091B490068
S1132CD440180090457BFF2D16D0A04829014919BE
S1132CE44900451828001C30FFF71AFE00280BD0B1
S1132CF41C352800FFF714FE0100009888470128BA
S1132D0402D1200001F0B8FC641CF078E4B28442DF
S1132D14DAD33C001CE09248E100091B89004718FF
S1132D24BD7E200001F026FB002810D0BF483221CC
S1132D344D43451928002830FFF7F2FD002806D03A
S1132D4428352800FFF7ECFD010038008847641C8F
S1132D54B078E4B28442DED3F1BDF8B503F008F8E8
S1132D64694E310036313000C01C03F0E0FA00280B
S1132D7425D1002420E07848E100091B49004718C4
S1132D847D7BFF2D16D07548290149194900451842
S1132D9428001030FFF7C4FD00280BD0103528009C
S1132DA4FFF7BEFD010038008847012802D1200046
S1132DB401F062FC641CE4B2F0788442DBDB310091
S1132DC438313000801D03F0B2FA00283ED10024CB
S1132DD439E0AA48E100401800900579007800F031
S1132DE45BFE0700FF2D2CD0FF2F2AD0AB481A21FD
S1132DF44D43451928001030FFF792FD002820D0D8
S1132E0456483901C919490040180C30FFF788FDA8
S1132E14002816D00098C07800F01EFB070010D0DC
S1132E2410352800FFF77CFD03000098C0783018A3
S1132E34027B390000989847012802D1200001F050
S1132E4435FC641CE4B2B0798442C2DB002413E090
S1132E54BD7E764832214D43451928002030FFF7C2
S1132E645FFD002806D020352800FFF759FD010036
S1132E7438008847641CE4B2B078844229DA20001C
S1132E8401F078FA0028F5D03548E100091B8900DF
S1132E944718F87CFF2802D0200001F091FAFD7E47
S1132EA4FE2DD5D0B04826214D43451928001C30A9
S1132EB4FFF736FD0028DDD01C352800FFF730FD70
S1132EC402005A48B97E32235943411838009047C6
S1132ED4D0E7FFF7E4FE002815D1307800F00EFDAA
S1132EE43078022804D00CD3042807D003D308E094
S1132EF403203070F1BD04203070F1BD0120307026
S1132F04F1BD02203070F1BDF0130020AA494979C3
S1132F14FF2900D1704780B50E4AC9005118C978F9
S1132F24884201D102F023FF01BDA34A5279FF2A4A
S1132F3400D1704780B5074BD2009A185379984250
S1132F4406D19079814203D102F013FF00F0D6FC3C
S1132F5401BD0000E87F020024150020B4580200DB
S1132F64180D0020F3B581B09449954803F0DFF9B6
S1132F7400284AD10024AE4EAE4F01E0641CE4B2F2
S1132F848D480079844240DA8B486100091940185D
S1132F940500F43503228A2149004118280003F06E
S1132FA440FA0028EAD1A878C100081A4000301871
S1132FB4407B01010818400038181830FFF7B0FCB2
S1132FC40028DBD02878694609798842D6D1687804
S1132FD46946097A8842D1D1A878C100081A400008
S1132FE43018407B01010818400038181830FFF7E6
S1132FF497FC0100A878C200101A400030188847D2
S1133004012802D1A87801F037FBF7BD10B50024DC
S113301405E0AA4A0021200000F0F3FB641C664882
S11330248078E4B28442F4D310BD00005457020003
S113303461488078704710B40100FF20002200E04A
S1133044521C5D4B9B78D2B29A4208D2AD4BD40049
S1133054A41AA4001B199B7C8B42F1D1100010BC50
S1133064704755498978884206D2A649C200101A85
S113307480000818807C7047FF207047701B002074
S11330844D498978884206D2AF49C200101A80009B
S11330940818007D7047FF20704700002442000098
S11330A480B50023802902DA00F0ABFB030018008A
S11330B402BD38B50C001500FFF7BDFF2A0021003E
S11330C4FFF7EEFF32BD70B50500002401F052F99C
S11330D4002847D08B48E900491B89004518E87E3D
S11330E4FE2820D0687CFF283CD0287CFF2839D0D7
S11330F41D4EE87E2621484330182030FFF710FC8B
S113310400282FD0E87E2621484330182030FFF7CA
S113311407FC0200A648A97E32235943411828001B
S1133124904704001EE0A87E297CFF291AD0A049F8
S1133134322250430C1820002C30FFF7F1FB0028F6
S113314408D118342000FFF7EBFB0100280088475E
S1133154040007E02C342000FFF7E2FB0100280000
S113316488470400200070BDA03D000080B5FFF72F
S113317462FFFFF7A8FF02BD10B5040001F0FAF8DE
S1133184002816D05F48E100091B89004018C17E5D
S1133194FE2906D092482622514340182430007850
S11331A410BD8349807E32225043081830300078A1
S11331B410BD002010BD0000F013002027140020CF
S11331C4F413002070B50500002401F0D3F800289E
S11331D42BD04C48E900491B89004618F07EFE2890
S11331E411D07F492622504308182421455C143009
S11331F4FFF796FB010030008847002815D0002D06
S113320413D0040011E0B07E8649322250430818DA
S11332143021455C1430FFF783FB010030008847FC
S1133224002802D0002D00D00400200070BD00004E
S113323424150020B4580200F8B50500002401F058
S113324499F800282FD02F48E900491B8900461813
S1133254F07E574FFE2815D06149262250430818A2
S11332642421455C1830FFF75BFB0200B07E322159
S11332744843391830009047002814D0002D12D048
S1133284040010E0B07E3221484338183021455CF4
S11332941830FFF745FB010030008847002802D0AE
S11332A4002D00D004002000F2BD0100FF20694A73
S11332B49278914201D28648405C7047904E000057
S11332C46448807970476348C078704730B402001A
S11332D4FF20002301E05B1CDBB25E4CE478A342D4
S11332E40DDA9B4CDD00ED1A6D006419E57A954204
S11332F4F1D1247B6406640E8C42ECD1180030BCFA
S113330470470000180D002052498979884204D27C
S11333149349C000081840787047FF20704710B4E0
S11333240100FF20002200E0521C4A4B9B79D2B2D8
S11333349A4206D28A4BD4001B195B788B42F3D190
S1133344100010BC70470000180D00204149C978D2
S1133354884206D28349C200101A40000818C07A71
S11333647047FF2070473B49C978884208D27D4999
S1133374C200101A40000818007B4006400E704733
S1133384FF20704733498979884204D27449C000C4
S11333940818C0787047FF2070472E4989798842FD
S11333A403D26F49C000085C7047FF2070470000D7
S11333B4545702000100FF20264A927991420DD20B
S11333C4674AC9005118C978FF2907D06548CA005B
S11333D4511A49004018007B4006400E7047000013
S11333E4A03D0000010000201A4AD27891420ED276
S11333F4574ACB00591A49005118497BFF2906D072
S113340459480A015118490040182030007870477F
S1133414010000200F4AD378994201D25018007B4E
S1133424704700005457020030B500240949C97894
S113343488420DD24B49C200101A40000D182800CE
S1133444FFF76EFA002803D02800FFF769FA040096
S1133454200030BDF013002001000020434AD2783C
S1133464914200D3704710B5394ACB00591A490028
S11334745418617BFF290AD03B480A0151184900BA
S113348440180C30FFF74CFA01002000884710BDA7
S1133494F8B5002535498979884216D23049C000E7
S11334A40C182679FF2E10D0E078FFF7D5FF07001B
S11334B40BD02F481A214E4380190C30FFF730FAF1
S11334C4020039002000904705002800F2BD0000E6
S11334D4F8270020F8B5274C24498A79904234D23D
S11334E41F4AC0001618F07835790D2D2DD2C978ED
S11334F488422ADA00271649C200101A4000081824
S11335040090407B0B280BD217490201101840008D
S113351408180C30FFF704FA0100009888470700E4
S1133524002F12D012481A214D4345192800143093
S1133534FFF7F6F9002808D014352800FFF7F0F94E
S1133544020039003000904704002000F2BD00005E
S11335542415002080B5FFF7E2FEFFF799FF02BDB2
S1133564701B002024150020B4580200F01300201E
S113357424420000FFFFFF7FF8B50321042002F07A
S113358435FB03F004FA03F0BFFB03F06AFE04F016
S1133594D7FAC94C210035312000801C02F0C7FE43
S11335A4451EAD41ED0F1E2221005031C34802F0E7
S11335B4ABFF401E8041C00F284005001E2221009D
S11335C47031BF4802F0A0FF401E8041C00F284064
S11335D405003C2221009031BA4802F095FF461EB2
S11335E4B641F60F2E4000273D0014E038003100A8
S11335F406000E4004D12A00FF211720FFF7BCF96E
S1133604AE4840190178802904DB7F2261195031C6
S113361402F080FE6D1C1E2D0EDA1C22B348E90054
S1133624491B89004118FF20FFF7D6F9B049495DC9
S11336348142DBD10120DAE7210034312000401C2F
S113364402F075FE461EB641F60F3D000BE038004D
S1133654310006000E4004D12A00FE211720FFF792
S11336648BF96D1CEDB2607885420EDA062268008F
S11336744019400021183C31FF20FFF7ADF96119CE
S1133684097A8142E3D10120E2E7210036312000A6
S1133694C01C02F04CFE451EAD41ED0F1422210066
S11336A4CC3120000C3002F02FFF461EB641F60F39
S11336B42E403D000AE03800310006000E4004D1DB
S11336C42A00FD211720FFF757F96D1C142D0EDA7B
S11336D40E228848E900491B49004118FF20FFF7DE
S11336E47BF98549495D8142E5D10120E4E7210064
S11336F437312000001D02F01AFE461EB641F60FB3
S11337041E228A20400021182000F43002F089FE91
S1133714401E8041C00F304004D12A00FC211720F0
S1133724FFF72AF9210038312000801D02F0FFFD43
S1133734451EAD41ED0F14222100E031200020305C
S113374402F0E2FE461EB641F60F2E403D000AE0AA
S11337543800310006000E4004D12A00FB21172052
S1133764FFF70AF96D1C142D0CDA0822AB48E900A2
S11337744118FF20FFF730F9A949495D8142E7D197
S11337840120E6E701F030F80E21042002F02EFABD
S113379402F012FC2821042002F028FA3D00BD4F57
S11337A40BE0B07E3221484338181030FFF7B8F8E4
S11337B40100300088476D1CEDB2A07885421BDA05
S11337C4280000F0D7FD0028F5D04848E900491B3B
S11337D489004618F07EFE28E3D0BA4926225043D5
S11337E408181030FFF79CF80200B07E32214843D9
S11337F4391830009047DEE72921042002F0F6F955
S1133804F1BDF7B5060000252B4881788E424FD2CE
S113381437002A49C9190091C4192100503100986C
S113382402F085FD002843D168460079009909789F
S113383488423DD3300000F09DFD002838D02B4849
S1133844F900C91B89004718FE7EFE2E19D0787C26
S1133854FF282DD0387CFF282AD0684602795034BA
S11338642100009802F056FD964826214E43801903
S11338740C30FFF755F80200029938009047050010
S113388416E0BE7E387CFF2812D068460279503494
S11338942100009802F03EFD7E4832214E438019F7
S11338A40C30FFF73DF802000299380090470500F8
S11338B42800FEBD00000000F0130020B8270020FB
S11338C4F8270020F022002038B50C001500FFF77B
S11338D4B2FB2A002100FFF794FF32BD80B51E23FA
S11338E400227949794802F084FF01BD180D0020B3
S11338F4D827002024150020202A0020F8B504002D
S1133904012C06D067D3032C03D02BD3042C29D049
S1133914F1BD6F4D290035312800801C02F007FDEC
S1133924002858D10024A878844254DA6948E10074
S1133934091B89004618B07EFF2810D0554932224D
S113394450430F1838001C30FEF7EAFF002806D055
S11339541C373800FEF7E4FF010030008847641C7C
S1133964E4B2E0E75A4D290036312800C01C02F0C5
S1133974DEFC00282FD10020022C01D1012600E016
S11339840600040022E05448E100091B49004018E1
S11339940090407BFF2817D05049020110184000C2
S11339A40F1838001430FEF7BBFF00280CD014376E
S11339B43800FEF7B5FF0200310000989047012853
S11339C402D1200000F058FE641CE4B2E87884427A
S11339D4D9DB04F09CFAF1BD10B40100FF200023EC
S11339E41A0000E0521CD2B21E2A04D20DA4A45C14
S11339F48C42F7D1FE20FF280ED11A0000E0521C9D
S1133A04D2B2052A08D22F4B262454431B1925333A
S1133A141B788B42F3D1100010BC7047701B00203C
S1133A24342A0020710001050603111060706364D8
S1133A34658066F0F1F2F3F4F5F6F7F8F9FAFBFCB5
S1133A44FDFE000010B40100FF20002200E0521C1F
S1133A54D2B2072A08D2224B322454431B193133DD
S1133A641B788B42F3D1100010BC704710B40100D2
S1133A74FF20002200E0521CD2B20D2A07D2BB4B15
S1133A841A2454431B195B7E8B42F4D1100010BCDE
S1133A94704700005457020010B40100FF200022B4
S1133AA400E0521CD2B20B2A09D20C4B1401A41804
S1133AB464001B1921331B788B42F2D1100010BC13
S1133AC470470000A03D000040140020B8270020E7
S1133AD4F0130020180D002024150020B45802000F
S1133AE454570200F0B587B0A14803C804AA03C21E
S1133AF4A04803C802AA03C200229F499F4802F0B7
S1133B0409FC02AA0421202004F0D0FD04AA032104
S1133B14202004F0CBFD012816D104A880880200DB
S1133B24D208D2B21F2A0BDB9548837801220E21D6
S1133B341F2004F05BFF0221002004F0DEFF1E229C
S1133B448D498E4802F0E6FB00252C0007E08D48E1
S1133B54322161434018FEF7E3FE8047641C072CBE
S1133B64F5D32C0007E08848262161434018FEF76A
S1133B74D7FE8047641C052CF5D31E232A468349AB
S1133B84834802F036FE0AE0FE20E0761C2221007F
S1133B94FF20FEF721FF7F4948556D1CEDB21E2D11
S1133BA400DBE0E07C48E900491B89004418FF205D
S1133BB40100A174E176A176217521746074210059
S1133BC4002005F0E5F86E4880788542DEDA0822A4
S1133BD40498E90041182000123005F0E3F8617EEE
S1133BE4FF2905D022000A32212004F05FFD07E0FA
S1133BF421000A31002005F0CBF80020A073E07303
S1133C04029800280CD0607D8006800E010002AA70
S1133C149288914204D22100029A101805F0B8F84F
S1133C24A17DFF2905D02200121D212004F03EFDB0
S1133C3407E02100091D002005F0AAF800202072E5
S1133C446072A07CFFF7C8FE0600FF2E09D12B008A
S1133C54012202211F2004F0C9FE0221002004F0E5
S1133C644CFF207DFFF7EEFE0700FF2F09D12B0048
S1133C74012203211F2004F0B9FE0221002004F0D4
S1133C843CFFFF2E82D0FF2F00D17FE73D48322135
S1133C947943401801900090001DFEF741FE8047CF
S1133CA42074FF280AD12B00012211211F2004F0C3
S1133CB49DFE0221002004F020FF24E00098083037
S1133CC4FEF72EFE010020008847012811D1A776B3
S1133CD401982430FEF724FE002814D02B0001227E
S1133CE40B211F2004F082FE0221002004F005FFB2
S1133CF409E02B00012212211F2004F077FE022187
S1133D04002004F0FAFEFE2E00D13DE723A0262174
S1133D14714347183800001DFEF702FE80476074A3
S1133D24FF280AD12B00012209211F2004F05EFE82
S1133D340221002004F0E1FE28E708373800FEF7EA
S1133D44EFFD010020008847012801D1E6761DE734
S1133D542B0001220A211F2004F048FE0221002026
S1133D6404F0CBFE12E707B0F0BD000024420000CB
S1133D74405702004857020025140020F213002083
S1133D84F013002054570200A03D0000401400200A
S1133D94B8270020D8270020180D0020E96E000061
S1133DA4296F0000596F0000F56F00004770000090
S1133DB4B1700000F5700000397100002572000034
S1133DC40130618D0200818D0200938D0200BB8D50
S1133DD40200DF8D02000B8E0200238E02003B8E54
S1133DE40200AF8E02000112618D0200818D020077
S1133DF4938D0200BB8D0200DF8D02000B8E020046
S1133E04238E02003B8E0200AF8E02000113256252
S1133E1402004562020057620200A7620200C962FE
S1133E2402001F630200356302004B630200AF63A8
S1133E34020001A0314902004D4902006149020017
S1133E44F5490200194A02004B4C0200694C020075
S1133E5400000000894C02000BA20000F0B585B0FC
S1133E64B34C0022210036312000C01C02F052FA67
S1133E74142300222100CC3120000C3002F0B9FCC0
S1133E840022210037312000001D02F043FA1E23D2
S1133E94FF228A20400021182000F43002F0A9FCFB
S1133EA403AA0421202004F001FC01AA00212020FB
S1133EB404F0FCFB012818D101A880880500AD0892
S1133EC4EDB2152D0ADB1425E37801220D211F2000
S1133ED404F08CFD0221002004F00FFE2A002100CE
S1133EE436312000C01C02F015FA002508E0C94848
S1133EF42901491949004018FEF712FD80476D1C39
S1133F040B2DF4D3002612E03300012207211F20D5
S1133F1404F06CFD0221002004F0EFFD0E222900C0
S1133F24FF20FEF759FDBC498855761CF6B2142EC1
S1133F3400DBBDE0B948F100891B49004518FF20A6
S1133F440100E972A9726873E0788642E6DA01989E
S1133F54B10047183878E872290003987A788018F1
S1133F6404F016FFE87A8A2801D00A2804D128002C
S1133F74FEF7D6FC00786071B978FF2905D02A00D1
S1133F84121D212004F092FB06E02900091D0020E3
S1133F9404F0FEFE00202881F8784006400E297BB8
S1133FA48022114008432873E87AFFF775FD07005F
S1133FB4FF2F0AD13300012211461F2004F016FDFD
S1133FC40221002004F099FDA8E792483901C91997
S1133FD4490040180090001DFEF7A2FC8047A87217
S1133FE4FF280AD13300012206211F2004F0FEFC1D
S1133FF40221002004F081FD90E700980830FEF7C8
S11340048FFC010028008847012800D07CE76F73E7
S113401400981830FEF784FC002800D17EE72100C4
S113402437312000001D02F082F920790A2834DA9D
S113403441000818201803228A2149004118F43049
S113404402F0EFF92800FEF76BFC6F46DB490078B9
S1134054C0000818C07838702800FEF761FCD749FE
S11340640078C0000818407978703000B87020795E
S113407441000818201803236A468A21490041187C
S1134084F43002F0BBF92279521CD2B22100373148
S11340942000001D02F03EF940E73300012208210C
S11340A41F2004F0A3FC0221002004F026FD35E7C0
S11340B405B0F0BDFEB51E4C142300222100E031EE
S11340C42000203002F095FB00222100383120002A
S11340D4801D02F01FF9002601AA0121202004F00A
S11340E4E5FA012830D1350007E0C3481A216943B1
S11340F44018FEF715FC80476D1C0D2DF5D301A85F
S1134104808802009208D2B2152A0ADBA37901221C
S11341140C211F2004F06AFC0221304604F0EDFC5B
S11341241422210038312000801D02F0F3F80BE042
S1134134F01300202F7108222900FF20FEF74CFC05
S1134144AE498855761CF6B2142E62DAAC48F100F6
S11341544518FF2001002971E9716870A07986422D
S1134164E9DA0198B100401801782970417869703E
S11341748178A970C0784106490E2878FFF7A6F81B
S1134184E870FFF72FF9A8716878FFF76FFC070050
S1134194FF2F02D0E878FF280AD13300012200213E
S11341A41F2004F023FC0221002004F0A6FCC2E733
S11341B41BA01A21794340180090001DFEF7B0FBA0
S11341C48047E871FF280AD13300012204211F200B
S11341D404F00CFC0221002004F08FFCABE70098EF
S11341E4007E687100980830FEF79AFB0200E878B4
S11341F42018017B2800904700289BD1330001221A
S113420405211F2004F0F2FB0221002004F075FCB8
S113421491E7F7BDB4580200202A00202415002099
S1134224ED8B0200018C0200138C02002D8C020021
S1134234318C0200558C02000200457B0200857B10
S11342440200977B0200097C02001F7C02003F7C71
S113425402000210D1A10200E5A10200F7A10200AC
S113426411A2020015A2020039A202000420D1A165
S11342740200E5A10200F7A1020011A2020015A2A6
S1134284020039A20200042149710200B57102003E
S1134294C9710200B5720200FF720200C772020003
S11342A402609FA50200A1A50200A5A50200A9A57C
S11342B4020000000000ADA502000173DD7D0200D0
S11342C4FF7D0200117E0200697E0200817E0200ED
S11342D4B77F02000270DD7D0200FF7D0200117EC3
S11342E40200697E0200817E0200B77F020002712F
S11342F4DD7D0200FF7D0200117E0200697E020062
S1134304817E0200B77F02000274859902009B99A2
S11343140200AD990200C7990200D9990200F999E3
S113432402000203859902009B990200AD990200E0
S1134334C7990200D9990200F99902000204A191D3
S11343440200C9910200DB9102002B920200359213
S11343540200579202000122B59E0200C99E020087
S1134364DD9E0200279F020000000000399F020026
S113437404300000BE49897888420CD2BD49C20089
S1134384101A80000818C17EFF2904D0807EFF28FB
S113439401D0012070470020704710B5B44C1E238F
S11343A4FF2221007031C04802F023FA3C2300228A
S11343B490342100CA4802F01CFA10BDE87F0200C0
S11343C410B582B00400AA4881788C4212D2011933
S11343D47031B548001901F0AAFF00280AD1200061
S11343E4FEF771FE007869460870012200992000E6
S11343F400F008F813BD000024420000342A002011
S1134404701B0020F3B589B01400B648006800900E
S113441400200490694648710646FF20087109A8E3
S113442400784000924909180391AD490818029094
S11344340399903101F07BFF002800D0F2E0039946
S113444491310298401C01F072FF002800D0E9E089
S113445407AA884809A90978CB00591A8900401881
S1134464C17C212004F022F9079D28780100C907A2
S1134474C90F491CC9B206910846022834D1697986
S11344842879FEF723FF69460871FEF71CFF694685
S1134494097981420FD20846FEF7BAFF694648718A
S11344A46846407902994978884205D1E4B2012CDE
S11344B402D1344600E0012468464079002816D02D
S11344C46979287900F0B2F807006878059007A89C
S11344D48088059904F0AAFC874208DA0598784391
S11344E42818801D049002E02800001D04900498FC
S11344F4002800D196E0E978A878FEF7E7FE69463B
S11345048871FEF7E0FE6946897981420CD2084637
S1134514FEF77EFF060002980078864205D1E4B2D5
S1134524012C02D1002400E03446002E05D0E978A1
S1134534A87800F07BF8070000E0AA4FA948874256
S113454470D0FF20694608700AA8007800090F2873
S113455424D00F21022808D12A785208920704D0C3
S1134564202008436946087018E00AAA13780A0050
S1134574134211D001280AD1287840088007800FFB
S1134584022804DB302008436946087006E0102042
S113459408436946087001E068460170684600787B
S11345A405002D090F2D3DD00499380004F098FC22
S11345B4070068460078F0210140BFB2A800074113
S11345C43807000F084369460870E4B2012C29D166
S11345D4FEF779FE69468979814205D2320003994E
S11345E49031029801F096FE069802280DD1FEF748
S11345F46AFE69460979814207D268464279039979
S113460491310298401C01F085FE684602781848EE
S113461409A9097841187031234809AB1B78C018DB
S113462401F078FE684600780BB0F0BD70B56D4CAF
S1134634FF280AD10800FEF746FD00780007000FA2
S1134644441EA441E443E40F0FE0FEF73FFE0600DA
S1134654FEF7C8FE05003000FEF7FEFE022D01D170
S1134664048802E0012D00D10478200070BD00000C
S1134674F0130020180D002038B580490C182500CB
S1134684CC35290020000C3001F051FE00280AD159
S1134694227B521CD2B2002A00D1012229000C34FC
S11346A4200001F037FE31BDF827002038B57349E6
S11346B40C182500E03529002000203001F037FED5
S11346C400280BD12020225C521CD2B2002A00D133
S11346D4012229002034200001F01CFE31BD000019
S11346E4F022002050570200F0B585B0634E00223A
S11346F408213000483004F029FC03AA06212020B4
S113470403F0D4FF03A8808802005208D2B2100038
S113471403280ADB737801220F211F2004F066F9B1
S11347240221002004F0E9F902223100343130007E
S1134734401C01F0EFFD00244FE06000001940002C
S113474437183D003C350398610040180090FF2061
S113475428712900002004F01BFB00206871707884
S1134764844230DAFEF764FC0099097881422AD243
S113477401AA00984178212003F098FF012815D15B
S11347840198B749027892099200895800290DD0FA
S1134794009909782971290004F0FAFA01A880889B
S11347A4801E0100C90F0818401068712879FF2879
S11347B409D12300012210211F2004F017F902213A
S11347C4002004F09AF906223C373900FF20FEF752
S11347D403F931190872641CE4B2022CADDB05B090
S11347E4F0BD0000FFFF0000F0B583B0234F390093
S11347F434313800401C01F09AFD00283DD10024D6
S113480438E06000001940003D183C35A0003E1813
S11348143000483001902800FEF782F818A100788F
S1134824800980000858009006222900FF20FEF722
S1134834D3F83919097A81421AD1FEF7F9FB010038
S11348442879884214D20099002911D0FEF7BAFCC1
S113485400780199087001992800009A90472879F2
S113486400F0CCFB0100493632002879FEF718FC2D
S1134874641CE4B278788442C3DBF7BDF0130020EF
S1134884954800006D4A0000994C00009D4E0000BC
S1134894F1B584B00D00FEF743F801900498007953
S11348A400F0ACFB6946C870E878002803D00228FD
S11348B473D072D3CFE00020087007460446694ED3
S11348C430E0080069464A7032006946C978FEF748
S11348D4E7FB6846407800F091FB694688706846B7
S11348E4C078897888421BD368464078FEF7A4FCD4
S11348F40290002814D068464078FEF73DFC02007C
S11349043100029804F052FB002800D001276846C5
S1134914007869468978884200D20800694608709C
S1134924641CE4B20498407984420BDA019861006F
S11349344018C178827868780028C2D110006A4689
S11349445170C1E76846C07869460978884200D244
S113495483E028786978814200D17EE0012801D17E
S1134964012000E00220E8703F20002F08D00199C4
S113497409780140019A527810400818A8706CE034
S113498429780129019902D10978084001E049787C
S11349940840A870287868705FE00498007900F0F3
S11349A41FFB07003F2029780129019904D10978C4
S11349B408406946887003E049780840694688706D
S11349C4002423E0019861004018C1786A465170BC
S11349D48078694608706846407800F001FB060058
S11349E43E436846007800F0FBFA304307001D4E4E
S11349F432006846C1784078FEF752FB32006846BC
S1134A04C1780078FEF74CFB641CE4B20498407946
S1134A148442D7DBA87800281DD004980079FEF7D7
S1134A2452FB002805D00078000902D0012800D0E8
S1134A340127002F11D1A878401EA87069468978EF
S1134A44C0B2814209D3E878012801D1012000E0F1
S1134A540020687001E00020E87005B0F0BD00009B
S1134A6484480000904E0000F1B584B00D00FDF7B9
S1134A7457FF02900498007900F0C0FA03900020D4
S1134A8469464870C870E878002807D0022800D125
S1134A94A0E000D29EE0032800D0F4E000200190BE
S1134AA44CE00700684601706846007800F0A6FAF6
S1134AB40400380000F0A2FA69468870039884421E
S1134AC41ADB68460078FEF77DFB060014D06846BE
S1134AD40078FEF751FB6E4C02002100300004F014
S1134AE465FA002808D001206946C8702200684687
S1134AF481783800FEF7D4FA6846807803998842AE
S1134B0418DB3800FEF75EFB060013D03800FEF70E
S1134B1433FB5F4C02002100300004F047FA002804
S1134B2408D001206946487022006846817838001C
S1134B34FEF7B6FA0198401CC0B20190019804999A
S1134B44497988420CDA0298019949004118C878D5
S1134B5489786A78002AA4D10F0069460870A3E70B
S1134B646846C078002800D08DE068464078002864
S1134B7419D12878697801290FD1012802D1032099
S1134B84E87010E0E878032803D10020E870687026
S1134B9409E001206946487005E0012803D100209A
S1134BA4E870012068706846407801286DD13F2080
S1134BB40299097801406A78002A03D1A970012076
S1134BC4E87062E0029A527810400818A870022033
S1134BD4E8705AE00498007900F002FA0600002014
S1134BE4019031E00298019949004418E07869463B
S1134BF40870A07848706846007800F0FFF9070050
S1134C046846407800F0FAF9694688706846007886
S1134C1400F0E6F9010031430E00A07800F0E0F959
S1134C243100084306001A4C220039006846007813
S1134C34FEF736FA2200684681784078FEF730FAA7
S1134C440198401CC0B201900198049949798842A2
S1134C54C8DBA9783F20029A12781040EA78022A25
S1134C6404D188429241D20F6A7004E0884292418E
S1134C74D243D20F6A700846002804D0002E04D10F
S1134C84401EA87001E00020E87005B0F0BD0000EB
S1134C94904E0000F1B584B00D00FDF741FE019083
S1134CA40498007900F0AAF90390002069468870FA
S1134CB40872E878002807D0022800D19EE000D2C8
S1134CC49CE0032800D0DDE000244DE01070684629
S1134CD441706846407800F091F90600684600780F
S1134CE400F08CF96946C870039886421ADB68465A
S1134CF44078FEF767FA070014D068464078FEF758
S1134D043BFAC34E02003100380004F04FF9002886
S1134D1408D001206946087232006846C1780078D8
S1134D24FEF7BEF96846C078039988421ADB6846E0
S1134D340078FEF747FA070014D068460078FEF7B7
S1134D441BFAB34E02003100380004F02FF9002896
S1134D5408D001206946887032006846C17800781A
S1134D64FEF79EF9641CE4B20498407984420CDA98
S1134D74019861004118C87889786A78002A6A46DB
S1134D84A4D1117069464870A3E76846007A0028E4
S1134D9478D168468078002819D12878697801295F
S1134DA40FD1012802D10320E87010E0E878032829
S1134DB403D10020E870687009E001206946887016
S1134DC405E0012803D10020E870012068706846DA
S1134DD48078012858D13F210198007808406A78E6
S1134DE4002A03D1A8700120E8704DE0019A52789A
S1134DF411404018A8700220E87045E000240DE03A
S1134E04019B1B781940914206D200BF1FA20100E6
S1134E1468460078FEF744F9641CE4B204984079C7
S1134E2484421FDA019861004018C7788078694683
S1134E340870380000F0E2F806006846007800F0D4
S1134E44DDF8AA783F21EB78022BD9D10198407878
S1134E5401409142E0D200BF0CA231003800FEF7B9
S1134E641FF9D9E7A878002802D0401EA8700BE0E7
S1134E74E878012801D1012000E0002068700020B6
S1134E84E87001E00020E87005B0F0BD0000000007
S1134E940000000000000000F1B584B00E00FDF72E
S1134EA43FFD01900498007900F0A8F869468870E1
S1134EB4F078002802D001284FD08DE00027307804
S1134EC4002839D13C4632E00198610040188078CA
S1134ED4694608706846007800F090F8694648709E
S1134EE4684640788978884220D368460078FEF77B
S1134EF469F90290002819D068460078FEF73CF955
S1134F046946C87068460078FEF796F90500684655
S1134F14C2782900029804F049F8002806D0012731
S1134F242A00684641780078FEF7BAF8641C0498AD
S1134F344079E4B28442C7D3012F0BD13F200199B5
S1134F4409780140019A527810400818B070012081
S1134F54F07043E03078707040E00498007900F019
S1134F643FF8070001206946487000241FE00198B7
S1134F74610040188078694608706846007800F03B
S1134F842FF838430700019840788006800EB178E2
S1134F9488420BD268460078FEF74EF9050005D026
S1134FA42A00684681780078FEF77AF8641C04982D
S1134FB44079E4B28442DAD3B078002804D0002FD4
S1134FC406D1401EB07003E0002069464870F070BA
S1134FD468464078707001E00020F07005B0F0BDC0
S1134FE480B5FEF770F801000020002905D0097887
S1134FF4090902D0012900D0012002BD01000020CA
S1135004044A9278914201D20348405C70470000FC
S1135014904E0000F0130020B827002010B5814CF6
S113502420230022210030312000103001F0E1FB64
S11350341023FF2221005031200001F0DAFB10BDBF
S113504470B5040000252E006178207800F05EFA23
S1135054002863D0200000F07BF9A078002805D054
S113506402281CD00BD3032837D056E02A462179D2
S1135074E07804F023F9200000F082FA4DE020786F
S1135084002801D1684845652078012801D1674882
S113509445652078022840D1654845653DE020787F
S11350A4002803D0022811D009D336E05E49082031
S11350B40A6810430860072202430A602DE05B4932
S11350C408200A6810430860086026E0082058494C
S11350D40A681043086008601FE02078002803D0A1
S11350E4022811D009D315E04F4908200A68104357
S11350F40860072202430A600CE04C4908200A684D
S113510410430860086005E0082049490A68104310
S113511408600860200000F005FA0126300070BD24
S113512470B50600FF257178307800F0EFF9002897
S11351342BD0824C21005031200001F0F8F80028D3
S11351441ED1210054312000001D01F0F3FA00287F
S113515416D12078FF2818D130780201D2B2210068
S11351645031200001F0D6F8307800F0CBFA020078
S1135174210054312000001D01F0C9FA257804E00F
S1135184002204212620FDF7F7FB280070BDF8B5A2
S11351940500002637002807000F022840DA2149B9
S11351A4C0000C1821005031200001F0C0F8002880
S11351B431D1210054312000001D01F0BBFA002834
S11351C429D12078A8422BD12E003609300000F0D2
S11351D499FA0500002E00D107276068854201D39F
S11351E42E1A02E0564969180E1A04F054FD0100FF
S11351F454480968F94003F01CFE7043FA218900FD
S113520403F017FE06002A0021005431241D200057
S113521401F07DFA04E0324604212620FDF7ACFBBC
S11352243000F2BD3C200020008003400090034085
S113523400A00340F6B583B0050000273C0028789D
S1135244002800D1072404F026FD01003D48096824
S1135254E14003F0EEFD01003E0028786A46107038
S113526439483A4A6B461B78D25CD2008458049875
S1135274FA229200504303F0DCFD616889B24018BD
S1135284019069786846007800F040F9002851D00C
S11352946766206820606878C0002018C1681022FE
S11352A40A43C2606846007B0146002901D00228F3
S11352B407D16978C9006118CA680C231343CB6009
S11352C412E0012801D0032807D16978C9006118C4
S11352D4CA6808231343CB6006E06978C9006118DF
S11352E4CA6804231343CB606978C9006118CA6887
S11352F404231343CB60022803D0032801D00428D9
S113530411D16878C0002018C16840220A43C260E1
S11353140D480E492A78895CC90040184179042251
S1135324805604F010FA6878C0002018019989B2F4
S113533401610126300005B0F0BD00003C200020CE
S1135344FFFF000000CA9A3B185B0000F4560000FB
S113535410B40178002904D0022900D189E058D37B
S1135364D1E0A8490A688023DB0513430B60A64AED
S113537400211160A54B93605160536D01241C43BB
S11353845465A34B1960D164C943916041790029E0
S11353941BD1C178032904D1510D9E4A03799B0082
S11353A4D150C178012905D1802189009A4A037911
S11353B49B00D150C178042900D09BE0802189004E
S11353C4964A03799B00D15094E001291BD1C178FA
S11353D4012904D1510D904A03799B00D150C1781D
S11353E4002905D180218900BD4A03799B00D1504D
S11353F4C178042900D086E080218900874A007995
S1135404800011507FE0510DB64A0079800011509C
S113541479E07C494A688023DB0513434B60B24A34
S1135424516D04230B43536500211160774B936042
S11354345160536D01241C435465AC4B19601368CB
S11354441360D164C94391604179002949D1C17879
S1135454022904D1510DA34A03799B00D150C17888
S1135464012950D1802189006B4A007980001150B0
S113547449E064498A688023DB0513438B60AA4AA4
S1135484516D04230B435365002111605F4B9360FA
S11354945160536D01241C435465A44B1960136873
S11354A41360D164C94391604179002911D1C17851
S11354B4032904D1110D574A03799B00D150C178B3
S11354C4042920D18021C900544A00798000115054
S11354D419E0012905D1510D4E4A0079800011507B
S11354E411E0C178022905D1802189007D4A03791C
S11354F49B00D150C178002905D180218900784AC4
S113550400798000115010BC7047000078A2125C2E
S1135514122805D2092903DAFF2A01D00120704791
S113552400207047F8B5070000252E0000F046F867
S1135534FF2823D106E0324604212620FDF71CFA75
S11355446D1CEDB2022D19DA7948290144182100A1
S113555430312000103001F051F80028EBD1208ABA
S11355640028EDD1387800027978421892B22100EB
S113557430311034200001F02FF801263000F2BD40
S113558410B500F01BF8FF2817D1694900010C1865
S1135594210030312000103001F030F8002807D108
S11355A40022210030311034200001F015F810BD20
S11355B4002204212620FDF7DFF910BD70B501781F
S11355C4090240780E18B6B2002406E00022042131
S11355D42620FDF7D1F9641CE4B2022C0DDA5448F8
S11355E421014518290030312800103001F006F853
S11355F40028EBD1288A8642EDD1022C00DBFF245B
S1135604200070BDE050064000800340FFFF00000E
S11356148080034000C0044000A0044000D0044043
S1135624F0B583B00C0000263700B14930A2125CF7
S1135634D2008D58694608704C706846FFF7BEFF67
S1135644E1006D18FF2844D02E69394900010C1873
S1135654210034312000143001F06CF800280FD1FB
S11356646069864203D2A34971180F1A00E0371AFD
S11356743A00210038312000183001F048F804E0E1
S11356843A4604212620FDF777F9E8688321890046
S113569401400C2914D121003C3120001C3001F0BC
S11356A449F8002807D13A0021003C3120001C307D
S11356B401F02DF804E0002204212620FDF75CF912
S11356C43200210034311434200001F020F8012682
S11356D403E0E86840218843E8603000FEBD000030
S11356E40090044000B004400090034080900340C4
S11356F400010203FFFFFFFFFFFFFFFFFFFFFFFFA8
S1135704FFFF000001000020002903D0022907D074
S113571403D307E07848006804E07848006801E0AF
S1135724A848006880B2704700A0034080A00340EA
S11357343C200020F2B584B0050016000027009731
S11357446F48864200DB461C6846008AC8218900EB
S1135754884201DA0720009004F09DFA01240068CD
S11357642100009A914003F064FB6946098A03F01E
S113577460FB401E01907043614903F05AFB694683
S11357840881280000F050F92878002803D0022862
S113579459D02CD38CE0964E0420716D0843706567
S11357A4204370653168009808433060697810318B
S11357B422008A40024332604E48B060684602893F
S11357C46978287800F016F97760316F6A78944024
S11357D4A1433167AA796B789A400A4332670199E5
S11357E4B160316808220A433260776561E08C4E07
S11357F40420716D08437065204370653168009816
S1135804084330606978103122008A4002433260D0
S11358143848B060684602896978287800F0EAF864
S11358247760316F6A789440A1433167AA796B78C1
S11358349A400A4332670199B160316808220A43E5
S11358443260776535E0774E0420716D08437065E6
S113585420437065316800980843306069781031DA
S113586422008A40024332602248B06068460289BA
S11358746978287800F0BEF8326F6B78210099407B
S11358848A433267A9796B78994011433167776009
S11358940199B160716D0C4004D092490A684B0DB2
S11358A413430B60316808220A433260776500E0D1
S11358B4380005B0F0BDF8B507000D000124104E02
S11358C4B54200DB751C7978387800F07DF86843BC
S11358D4310003F0AEFA02007978152901DB0024C3
S11358E403E092B2387800F085F82000F2BD00009D
S11358F4185B0000FFFF0000048003400490034091
S11359041027000038B504000D002078002803D0C7
S1135914022837D022D348E0002073496278D200A9
S11359248850E178032903D172492279920088507E
S1135934E178012903D17049227992008850E178F1
S1135944042903D16D49227992008850E178002911
S11359542BD16B4922799200885026E000206349B8
S11359646278D2008850E178022904D16549227909
S11359749200885019E0012917D15F4922799200D5
S1135984885012E000205A496278D2008850E178A5
S1135994032903D15749227992008850E1780429D4
S11359A403D1564922799200885006222179E0785D
S11359B403F084FC2A002179E07803F0E5FC00205C
S11359C432BD000004A00340002803D0022807D0FD
S11359D403D308E04C48006806E04C48006803E040
S11359E44B48006800E0002080B2704700000000CB
S11359F400800340002803D002280BD005D30DE017
S1135A043948C9004018426008E03848C9004018C1
S1135A14426003E03648C9004018426001207047E0
S1135A240090034000A003400178002903D0022918
S1135A3440D029D3704728212B4A4378DB00D15026
S1135A44C178032904D1510D2A4A03799B00D1500A
S1135A54C178012905D180218900274A03799B0053
S1135A64D150C178042905D180218900234A0379BE
S1135A749B00D150C178002932D180218900204A69
S1135A8400798000115070472821184A4378DB00BC
S1135A94D150C178022905D1510D1A4A00798000E8
S1135AA41150704701291BD1510D134A007980000C
S1135AB41150704728210E4A4378DB00D150C17835
S1135AC4032904D1110D0B4A03799B00D150C178E9
S1135AD4042905D18021C900084A007980001150A5
S1135AE47047000098A003400C8003400C900340CE
S1135AF40CA0034000C0044000A0044000D00440B3
S1135B040090044000B0044008800340089003401F
S1135B1408A00340008003401102000000900340E9
S1135B241201000000A00340130000000000000064
S1135B34000000000000000000000000000000005D
S1135B4400000000000000000000000010B5002464
S1135B5407E00019002201001031001D00F0DAFBF7
S1135B64641C5E48052CF4DB002201000C3100F0B7
S1135B74D1FB10BD10B500F08BF800280FD1002420
S1135B8407E05648001901001031001D00F0CFFB56
S1135B94641C052CF5DB0121084600F027F810BD30
S1135BA470B505002E00052E1FDA00F071F80028E8
S1135BB41BD14A488419210010312000001D00F033
S1135BC4B6FB2079002804D046A1895D491C88428B
S1135BD407D1012221001031241D200000F09AFB7A
S1135BE470BD2900102000F064F870BDF8B50D00F4
S1135BF40700052F2EDA00F04BF800282AD1374885
S1135C04C419210010312000001D00F090FB2279FA
S1135C1436A0B90040588018401E0678AE4208D118
S1135C24521CD2B221001031241D200000F072FB5A
S1135C34F1BD3802521ED1B2441801222849274822
S1135C4400F068FB2802F1B24218A4B221000F202C
S1135C54FCF792FEF1BD000070B504002600052E89
S1135C6415DA00F015F8002811D11C48851929000B
S1135C7410312800001D00F05AFB287919A1895D10
S1135C84491C884203D02100102000F012F870BD92
S1135C9410B5124C21000C31200000F048FB002800
S1135CA405D0012221000C31200000F033FB2078C0
S1135CB410BD38B5050009480A0241180979491E7E
S1135CC4C9B25418012201000C3100F023FB002254
S1135CD4A4B221002800FCF74FFE31BD2C2900207A
S1135CE4382900200C070417280000002C2B00007E
S1135CF4782B0000802B0000382B0000502B000070
S1135D04F8B500200500884C069B2370079B63703C
S1135D140223A370FF23E3700600A680A671206209
S1135D245A26A68207002772E3740300A3832683FA
S1135D34E3722373E37323746172A27201006183B7
S1135D446173A07300F0F7F800F0F6F82000FFF791
S1135D5477F9012809D12000FFF7E2F9E074C82299
S1135D6404212000FFF766FA05002800F2BD7047FD
S1135D747047F8B500263500EFF31080009072B632
S1135D84694CE07CFFF703FAA18BC8380818A08398
S1135D941C20205E332802DB3220A08305E031215D
S1135DA4C943884201DA0846A083C8201C21615EE5
S1135DB4421A04212000FFF73DFAA17A607A03F025
S1135DC4FAFA0700E772207B874205D0300060733B
S1135DD4A07B401CA07304E0607BFF2801D0401C1E
S1135DE46073012F05D1607B042802DBA07B0028AB
S1135DF40AD1A08AC000092103F018F8218B884233
S1135E0413DAA07B032810DB217A012902D00229AA
S1135E1400D00125208B332804DBA18A0818801CB8
S1135E244010A08226833000A0732773607B15285A
S1135E3401DB3000A073208B3C49884201D0401C14
S1135E442083208BA18A0A005208121F904200D199
S1135E540325491F884200D10125C82800DB0525F4
S1135E64E07B2900012906D12074A074E673206A1A
S1135E74401C206219E0032903D120746074E67382
S1135E8413E0401CE073217A012906D1A27C520854
S1135E94C0B2824201D2022507E0032905D1617C04
S1135EA44908C0B2814200D20425002D00D02572D5
S1135EB4217C00290FD0E07BB422504302F0B6FFCA
S1135EC480B2B52800DBB420217A032901D0042947
S1135ED400D1B430E082280000F02CF802F016F867
S1135EE4009880F310882800F2BD30B50024200007
S1135EF40D4D297A05290ED0A98A00290BD00C4806
S1135F0402F094FF296A072905D3C0B20100383985
S1135F14092900D32000C0B230BD0348006A704789
S1135F240148007A7047000074270020FFFF000036
S1135F3488130000704770477047000038B5052186
S1135F440320FFF753FE8A480F2300220100103177
S1135F5400F04FFC0024250006E02900891DC9B285
S1135F640320FFF743FE6D1C062D08D28BA0A90065
S1135F744919890040580100EFD08047F3E70C2108
S1135F840320FFF733FE06E021000D31C9B20320DC
S1135F94FFF72CFE641C052C09D200BFA5A0A100A8
S1135FA40919890040580100EED08047F2E7122114
S1135FB40320FFF71BFE31BDF0B583B00020694612
S1135FC408710F210420FFF711FE002405E02200CC
S1135FD468492920FCF7D0FC641C052C1FD26448B2
S1135FE46100091945182E001035032229003000D8
S1135FF400F017FA0028EAD13078802804DB7F22E5
S11360042900300000F086F970788028E4DB7F22D0
S11360146D1C2900761C300000F07CF9DCE70024B8
S11360240DE0650029001031C9B20420FFF7DEFD3C
S113603411352900C9B20420FFF7D8FD641C062CCD
S11360440AD200BF55A0A10009198900401840686C
S11360540100E6D08047F1E71C210420FFF7C6FDC8
S1136064002623E07000009001461D31C9B20420CB
S1136074FFF7BCFD00991E31C9B20420FFF7B6FD39
S1136084002F06D100222900891C2000801C00F066
S113609441F900222900200000F03CF900226D1C83
S11360A42900641C200000F035F9761C052E5AD210
S11360B460A0B10089198900401800902C4871002F
S11360C489194418250010350027032229002000CB
S11360D400F0A7F9002832D160782278904204D2E3
S11360E4A37893428941C90F00E03946904205D30D
S11360F4A37898429241D243D20F00E03A466846CC
S1136104007902430CD00098006901001CD0804738
S113611462782900891C2000801C00F0FBF813E03D
S1136124002911D00098C06801000DD0804722785E
S11361342900891C2000801C00F0ECF804E03200E3
S11361440C492920FCF718FC00984168080089D000
S1136154A07888470700032F01D0052F90D1012090
S1136164694608718CE727210420FFF73FFDF7BD3A
S113617418280020FFFF000010B5020008000021C9
S1136184062A09D205A39400A21892009A18D26888
S1136194130001D090470121080010BD69340200A6
S11361A4CD34020000000000273502000000000086
S11361B400000000000000000000000000000000D7
S11361C400000000000000000000000000000000C7
S11361D400000000000000000000000000000000B7
S11361E400000000000000000000000000000000A7
S11361F40000000000000000000000000000000097
S1136204D52C0200792D020000000000AD2D0200FF
S1136214000000000100FF20052900D3704780B569
S113622404A28B0059188900511889680A0000D007
S1136234884702BD49870200AD87020085880200B1
S1136244B7880200C9880200D19C0200F99C0200AC
S1136254679D0200A19D0200B39D0200E58802002F
S11362640D890200138A0200438A0200578A02003D
S113627425A102003DA1020087A10200A7A10200FA
S1136284B9A10200D5950200FB950200B396020061
S1136294DF960200F7960200F8B50C0000250528E5
S11362A414D21B49420010180F183E00103739004D
S11362B4300000F03CF8002808D13078844205D33B
S11362C422003900300000F025F801252800F2BD31
S11362D4F8B50C000025052818D20D494200101801
S11362E40F183E0010373900491C3000401C00F0E0
S11362F41EF800280AD17078844207D322007F1C38
S11363043900761C300000F005F801252800F2BDA0
S11363141828002010B4EFF31084230072B602701E
S1136324D2B2D4430C7083F3108810BC704770B598
S113633482B004000D00002069468870EFF31080D9
S1136344060072B62078C1436846417068464078B6
S1136354297888424DD02A0021000120FCF70CFB47
S1136364012069468870207869464870012069468E
S1136374087068460078002815D0684600782070B4
S1136384207869460978884207D02A00210002202F
S1136394FCF7F2FA022069468870684600784000E7
S11363A469460870E5E768464078207028786946AD
S11363B4487001206946087068460078002815D0A2
S11363C4684600782870287869460978884207D096
S11363D42A0021000220FCF7CFFA032069468870C2
S11363E468460078400069460870E5E768464078E6
S11363F4287086F310886846807876BDF0B5EFF38C
S11364041086350072B6002634009C4206D2165D0E
S11364140655165DF7430F55641CF6E785F310889B
S1136424F0BDF0B583B006000D00170000206946E6
S11364344870EFF31080019072B600200400BC424F
S11364445CD2305DC1436846817068468078295DBA
S1136454884251D068464078002807D12A00310088
S11364640120FCF789FA012069464870305D6946C9
S1136474887001206946087068460078002815D0A1
S1136484684600783055305D69460978884207D0FB
S11364942A0031000220FCF76FFA02206946487092
S11364A468460078400069460870E5E768468078E5
S11364B43055285D6946887001206946087068462D
S11364C40078002815D0684600782855285D694668
S11364D40978884207D02A0031000220FCF74CFADC
S11364E4032069464870684600784000694608708D
S11364F4E5E7684680782855641CA0E7019880F392
S1136504108868464078FEBDF4B584B006000D00DA
S1136514002007000020009000980499884257D274
S1136524EFF31080029072B668460099715CCA4316
S11365340271684600790099695C884241D0FFB2CF
S1136544002F06D12A0031000120FCF715FA01209E
S1136554070068460099715C01710124E4B2002CBF
S11365640FD0009834540098305CE4B2A04206D0B2
S11365742A0031000220FCF7FFF90220070064001E
S1136584ECE7684600790099705468460099695CA0
S113659401710124E4B2002C0FD000982C5400980B
S11365A4285CE4B2A04206D02A0031000220FCF7A1
S11365B4E3F9032007006400ECE7684600790099D6
S11365C46854029880F310880098401C0090A3E754
S11365D43800C0B205B0F0BD10B4EFF3108423004A
S11365E472B614000470240A447092B2D4430C703A
S11365F4240A4C7083F3108810BC70477CB50400E3
S11366040D00002069460871EFF31080060072B68D
S1136614217860780006000C0143C8436946488029
S1136624684640882A7869780906090C0A4380B2C6
S1136634904267D02A0021000120FCF79DF9012033
S113664469460871217860780006000C01436846A5
S113665441800120694608806846008800281CD0CF
S1136664684600882070000A6070684600882278B2
S113667461780906090C0A4380B2824207D02A00D1
S113668421000220FCF778F9022069460871684663
S11366940088400069460880DEE768464088207028
S11366A4000A6070297868780006000C0143684683
S11366B441800120694608806846008800281CD06F
S11366C4684600882870000A6870684600882A783A
S11366D469780906090C0A4380B2824207D02A0069
S11366E421000220FCF748F9032069460871684632
S11366F40088400069460880DEE7684640882870C0
S1136704000A687086F310886846007976BDF0B58F
S113671404000D001600EFF31080070072B6210088
S1136724300002F035FB2900F04302F031FB87F31B
S11367341088F0BDFEB506000D0000200700EFF33D
S11367441080029072B63000FCF7EAF8C14301915C
S1136754019900912800FCF7E3F80099814242D0A2
S11367642A0031000120FCF707F90120070030005A
S1136774FCF7D6F8019001200400002C11D031005C
S1136784200002F005FB3000FCF7CAF8A04206D052
S11367942A0031000220FCF7EFF80220070064000D
S11367A4EBE73100019802F0F3FA2800FCF7B8F89B
S11367B4019001200400002C11D02900200002F0D3
S11367C4E7FA2800FCF7ACF8A04206D02A0031000E
S11367D40220FCF7D1F8032007006400EBE729004A
S11367E4019802F0D5FA029880F310883800C0B2F8
S11367F4FEBDF1B5009D0C00EFF31086300072B6B7
S113680400269E4207D22A706D1CD2B2D743277049
S1136814641C761CF5E780F31088F1BDF8B57A4E54
S113682400223100091D3000FFF774FD0024EFF34A
S1136834108513E072B6E0003718002208213800EE
S1136844083002F083FB082208373900FF20FCF7E4
S1136854C3F83119887085F31088641C022CE9DBB1
S113686415210320FFF7C2F9F1BD38B5FF25664CA5
S11368742100091D2000FFF75AFD00280BD12278BE
S1136884022A0DDA1500521CD2B22100091D20007F
S1136894FFF740FD04E02A4600211720FCF76CF8BA
S11368A4280032BDF1B584B0002738006946087267
S11368B4554D2900091D2800FFF739FD002862D130
S11368C40498807A297888425DD2EFF3108001908D
S11368D472B60498807AC0002C1808340822210067
S11368E4FF20FCF779F80499897A69188978884231
S11368F401D1012000E03800019981F310880028B7
S113690441D03E000498FCF70BF8007803900498F7
S1136914001DFCF705F8002806D001214078400941
S11369240A00104200D00E00B4480399C90040186C
S1136934009032004178007802F0C0FCEFF310803C
S1136944019072B6FF20207038006070A070E0706F
S113695420716771E67108222100FF20FCF73CF8DE
S11369640499897A69188870019880F310883B46E1
S1136974E27900984178007802F03CFD012802D1C4
S11369840120694608726846007A05B0F0BDF8B57E
S11369949B4F3900091D3800FFF7C9FC461EB64158
S11369A4F60F0024EFF3108503E085F31088641CCC
S11369B4E4B2022C17DA72B60822E000391808315E
S11369C4FF20FCF709F839198978884201D101209C
S11369D400E00020310006000E40E6D12200002130
S11369E41720FBF7C9FF07210420FFF7FFF8F1BDC7
S11369F401000020897A824A1378994202D2C8009D
S1136A0410180830704700005C29002038B50400D1
S1136A140025FFF76AFA002804D1FF21200000F0C2
S1136A2412F80500280032BD70B505000C000026DC
S1136A34FFF75BFA002804D02100280000F003F8D3
S1136A440600300070BDF2B586B0070000252800AA
S1136A546946487010200870694E3100091D3000E1
S1136A64FFF765FC002800D0C4E0B87A3178884286
S1136A7400D3BFE03800FBF753FF007805903800DB
S1136A84001DFBF74DFF0290EFF3108472B6082249
S1136A94B87AC0003118083103A802F083F9082237
S1136AA4B87AC00031180831FF20FBF795FFB97A92
S1136AB471188978884201D1012000E0280084F308
S1136AC41088002800D195E04C480599C900401865
S1136AD4019003AC2B46E2794178007802F08AFCF9
S1136AE4002805D10198427801782420FBF744FF5B
S1136AF401984178007802F05EFC0299002914D0D0
S1136B040121029A5278D20902D0020008005040AE
S1136B14029A12785207520F91406A4611706946DC
S1136B240978052901DA102111706946097EFF29C3
S1136B3402D11021217110E0012803D16278521C82
S1136B44627002E0A278521CA2706279904204D06E
S1136B54884202D12179891C2171012803D16178E9
S1136B64491C617002E0A178491CA17061798842D2
S1136B7409D0E178891CE170C9B2042913DB290026
S1136B846170A1700FE0012806D1617804290ADB41
S1136B9429002171618006E0A178042903DB29001E
S1136BA4E1702171617060716846017803A800F096
S1136BB429F8012806D1280060706080257101201D
S1136BC469464870EFF3108472B6082203A9B87AB0
S1136BD4C0003018083002F0E5F80822B87AC00082
S1136BE431180831FF20FBF7F7FEB97A7118887061
S1136BF484F310886846407807B0F0BDE87F02004B
S1136C045C29002030B40200FF24002318005578C6
S1136C148D4201D301240EE095788D4201D31C00EA
S1136C2409E0D5788D4206D349081479A14201D2EA
S1136C34032400E002242100FF2908D001252800B0
S1136C441470022901D0032900D12B00937130BCA4
S1136C547047000080B5A1481923002201001C31AB
S1136C64FFF7C7FD1A210320FEF7C0FF01BD38B5A5
S1136C74FF259A4C2100343120001830FFF757FBCC
S1136C84227E082A08DA1500521CD2B221003431BB
S1136C9418342000FFF73EFB280032BDF8B5070086
S1136CA40025002F2ED08D4C2100343120001830C3
S1136CB4FFF73DFB3800FBF733FE0678387C217E72
S1136CC488421FD203F04AFA86421BDA8448F10050
S1136CD446183078FF2815D0044668467178017048
S1136CE4200002F0E3FA01280CD16846027821005E
S1136CF4380000F0CEF8B27868460178200002F03B
S1136D04DDFA01252800F2BD10B5744C210034319C
S1136D1420001830FFF70BFB182221001C3120003F
S1136D24FFF77FFB0C210420FEF760FF10BDF8B5CC
S1136D340F000024002813D0067C684D2900343148
S1136D4428001830FFF7F3FA287E864208DA700028
S1136D54801928183A7801001C31FFF7DBFA012462
S1136D642000F2BD70B5002400281AD0067C5B4DC7
S1136D742900343128001830FFF7D9FA287E8642D6
S1136D840FDA700080192C1821001C312000FFF741
S1136D94CEFA227821001D31641C2000FFF7BAFAD0
S1136DA40124200070BD70B50024002812D0067C94
S1136DB44A4D2900343128001830FFF7B8FA287EE8
S1136DC4864207DA700080192C1821001C31200037
S1136DD4FFF7ADFA200070BD70B50024002814D06C
S1136DE4067C3E4D2900343128001830FFF79FFA01
S1136DF4287E864209DA700080192C1821001D317E
S1136E042000401CFFF793FA641C200070BDF0B509
S1136E1483B005000026002D39D0287C01902F4C26
S1136E242100343120001830FFF781FA0198217EC3
S1136E3488422CDA2800FBF773FD00782849C00047
S1136E440F18387869464870684679780170019853
S1136E5441000818241821001E312000801CFFF76B
S1136E6466FAA378BA7868460178407802F0C2FAE0
S1136E74012807D1684602784178280000F009F80F
S1136E84012604E0BA78A97C2420FBF775FD3000C0
S1136E94FEBDF8B505000F001600287C0F4942001A
S1136EA410180C1821001D312000401CFFF73FFA74
S1136EB46078297E0909CA4342401500ED07ED0FA5
S1136EC42A003100380002F05FFA2A0021001E3142
S1136ED4A41C2000FFF71EFAF1BD00009C2300202F
S1136EE4E87F020038B5CD4C002221001431200083
S1136EF41230FFF70FFA00252800E07402460D2132
S1136F04200002F033F806E00D222100FF20FBF7F5
S1136F1463FD60740125002DF6D002210320FEF7E1
S1136F2465FE31BD38B5FF25BC4C21001431200069
S1136F341230FFF7FCF900280AD1A07C002807D1FD
S1136F44002501222100143112342000FFF7E2F954
S1136F54280032BDF8B5050000263700AF4C2100E7
S1136F64143120001230FFF7E2F900283ED1687C86
S1136F74A17C88423AD20D22114648432118FF20AD
S1136F84FBF72AFD697C6218527C82422ED10D20C3
S1136F94414360183100017041708170867128008A
S1136FA40A30FBF7BDFC002815D0A97BE87B00065A
S1136FB4000C01430FD028000A30FBF7B1FC697CB4
S1136FC40D2251436118093101F0E2FE687CE0743A
S1136FD400F016FC01270D22687C11464843211851
S1136FE4FF20FBF7F9FC697C611848743800F2BD92
S1136FF4F8B506000F000025884C21001431200048
S11370041230FFF794F9002819D1707CA17C8842CE
S113701415D2EFF3108572B60D2148432018397840
S113702441700D22707C114648432118FF20FBF760
S1137034D3FC717C6118487485F3108801252800F9
S1137044F2BDF8B505000026744C2100143120006B
S11370541230FFF76CF9002826D1687CA17C8842A1
S113706422D2EFF3108772B60D2211464843211839
S1137074FF20FBF7B1FC697C6218527C824211D177
S11370840D204143611848788A7890420AD0002838
S113709408D088700D22FF20FBF79EFC697C6118E0
S11370A44874012687F310883000F2BD38B5050012
S11370B45A4C2100143120001230FFF738F900280B
S11370C414D1687CA17C884210D20D221146484315
S11370D42118FF20FBF780FC697C6218527C8242F1
S11370E404D10D2041436018401C32BD002032BD40
S11370F438B50500494C2100143120001230FFF743
S113710416F9002814D1687CA17C884210D20D227F
S1137114114648432118FF20FBF75EFC697C621882
S1137124527C824204D10D2041436018801C32BD3C
S1137134002032BDF1B582B00D0000273800694645
S11371440871364C0298407C0D2148432018009065
S1137154EFF3108672B60A460146FF20FBF73CFCA7
S11371640299497C6118497C814200D1012786F344
S113717410882100143120001230FFF7D8F80028B9
S113718448D10298407CA17C884243D2012F41D14A
S1137194E07400F019FBEFF3108672B60D22009927
S11371A4FF20FBF719FC0299497C6118487486F3A3
S11371B4108828000C30FBF7B3FB00282AD02800E1
S11371C40C30FBF7ADFB020000980299497C0D23B7
S11371D459434118891D0298904728001030FBF741
S11371E49FFB002816D028001030FBF799FB010000
S11371F40298884728002030FBF792FB002806D029
S113720420352800FBF78CFB0100029888470120F5
S11372146946087168460079FEBD00008C29002087
S113722438B50500B54C2100143120001230FFF7A5
S11372347EF8002813D1687CA17C88420FD20D22E9
S1137244114648432118FF20FBF7C6FB697C6218EA
S1137254527C824203D10D204143601832BD002088
S113726432BD70B5A54C2100143120001230FFF753
S11372745EF8002809D00022A0211720FBF77CFB2C
S11372840A210420FEF7B2FC70BD00263000EFF39F
S113729410850AE0300085F31088002804D13246B2
S11372A402211720FBF768FB01200028E8D172B6FD
S11372B40D222100FF20FBF78FFB617C8142E9D181
S11372C40120E8E780B58D48C17C0D225143401864
S11372D48178012902D10178022905D001788078C6
S11372E4022804D1012902D100F0BCF901BD00290E
S11372F401D100F060F901BD80B58048C17C0D2244
S113730451434118CB790A7A1206120C1343012B08
S113731402D100F0CCF901BDC17C0D2251434218C5
S1137324D179137A1B061B0C1943C27C0D235A43CF
S11373348018491EC171090A017201BD6F48C17CDC
S11373440D22514340180179491C017170476B485F
S1137354C17C0D22514340184179491C4171704745
S113736480B500F021F8401E8041C00F02BD80B5F5
S113737400F06FF8401E8041C00F02BD01205F4938
S1137384CA7C0D235A4389184A78012A04D10A78FD
S1137394012A01D1002070474A78022A03D10978CE
S11373A4022900D10020704710B5544CE07C0D2113
S11373B4484320180930FBF7B3FAE17C0D2251430A
S11373C4611809798078401E814201DA012010BDD8
S11373D4002010BD10B500242120FBF7A0FFFBF70B
S11373E4D1FFFCF739F80078002803D0801E012867
S11373F40AD912E04148C17C0D22514340188078D7
S113740401280AD1012408E03C48C17C0D225143DF
S113741440188078022800D10124200010BD374888
S1137424C17C0D2251434018002141710171704700
S11374343248C17C0D225143401800210171704728
S11374442E48C17C0D22514340180021C1710172A0
S1137454704710B5294CE07C0D21484320180930AD
S1137464FBF75EFAE17C0D22514361184979C27835
S113747491428041C00F10BD80B52048C17C0D22CB
S1137484514340188178012905D102210170032058
S113749402F01AFF01BD022904D101210170022066
S11374A402F012FF01BD10B5144CE07C0D214843D9
S11374B420180930FBF734FA01008879CA791206D6
S11374C4120C1043E17C0D2251436418052101F090
S11374D4ADFCE071000A207210BD0848C17C0D2285
S11374E4514340180021817170470448C17C0D2226
S11374F45143401801218171704700008C290020F8
S113750410B5BE4CE07C0D21484320180930FBF72C
S113751407FA010008794A791206120C1043E17C37
S11375240D2251436418052101F080FCE071000A26
S1137534207210BDB148C17C0D225143401881789A
S1137544012902D1032101707047022901D10421C8
S11375540170704710B5A94CE07C0D2148432018F4
S11375640930FBF7DDF90100087A4A7A1206120C95
S11375741043E17C0D2251436418052101F056FCAB
S1137584E071000A207210BD10B59C4CE07C0D2102
S1137594484320180930FBF7C3F90A30FBF7C0F954
S11375A4E17C0D2251436418052101F042FCE07191
S11375B4000A207210BD80B52120FBF7B0FEFBF752
S11375C4E1FEFBF749FF0078002803D0801E012860
S11375D407D90DE089480121C27C0D235A43815403
S11375E401BD86480221C27C0D235A43815401BD46
S11375F482480021C27C0D235A43815401BD80B5C5
S113760400F005F8002801D100F011F801BD10B50F
S113761400242020FBF783FEFBF7B4FEFBF71CFFDA
S11376240078801E012800D80124200010BD38B53C
S1137634724CE07C0D2148432018C178891E03292B
S11376440FD80125C57000202074FFF7E8FEFFF76A
S1137654F7FE207C002803D1FFF73FFFFFF7ABFFC1
S1137664257431BD10B5654CE07C0D2148432018C8
S1137674C07801281AD1FFF781FE012816D1FFF73B
S1137684C6FF012812D1FFF755FFE07C0D214843C2
S113769420180221C17000202074FFF731FF207CE0
S11376A4002801D1FFF721FF0120207410BD10B57B
S11376B4524CE07C0D2148432018C178891E05D022
S11376C4491E0FD0491E012970D910BD0321C17070
S11376D400202074FFF7E7FE207C002871D1FFF717
S11376E4FCFE6EE0FFF776FE01280FD1E07C0D214D
S11376F4484320180121C17000202074FFF78FFE35
S1137704FFF79EFE207C00285BD14AE0FFF74CFE85
S1137714012811D1FFF712FEE07C0D214843201803
S11377240421C17000202074FFF714FF207C00287A
S113773447D1FFF7D2FE44E0FFF712FE012817D128
S1137744FFF787FE012813D1FFF701FEFFF770FE50
S1137754E07C0D21484320180521C17000202074C9
S1137764FFF712FF207C00282BD1FFF7B6FE28E098
S1137774FFF7F6FD012826D1FFF7F9FD012822D1F0
S1137784FFF77AFEE07C0D21484320180121C170E3
S113779400202074FFF743FEFFF752FE207C0028EC
S11377A40FD1FFF79AFEFFF706FF0AE00221C1702A
S11377B400202074FFF7A4FE207C002801D1FFF7E9
S11377C494FE0120207410BD10B50C4C00202074CC
S11377D4E07C0D2148432018C078401E03D0401E8D
S11377E4032803D910BDFFF76DFD10BDFFF707FF94
S11377F4207C002801D1FFF77FFD10BD8C290020D7
S113780438B50B4C0125E07C0D2148432018C57084
S113781400202074FFF703FEFFF712FE207C0028EB
S113782403D1FFF75AFEFFF7C6FE257431BD0000ED
S11378348C29002010B5C14C00221421200001F031
S113784495FB002006E014222100FF20FBF7C4F876
S1137854207501200028F6D00022210016311534A9
S11378642000FEF757FD18210320FEF7BFF910BDD1
S113787438B5FF25CD4C2100163120001530FEF714
S113788456FD607D002807D1002501222100163110
S113789415342000FEF73EFD280032BDF8B505007E
S11378A40026A64C2100163120001530FEF73FFDBA
S11378B4A87A617D884247D22800001DFBF730F87E
S11378C407002800FBF72CF8B9490078C000081811
S11378D441794B00DBB232468179C07803F060F918
S11378E4060002D10C2002F0EFFC387979790906FC
S11378F4090C0843A97A8A00511889006118009177
S1137904052101F093FA0099C872000A0873A87A51
S11379148100081880002018F9784172090A8172DC
S1137924A87A8200101880002018401C00F042F944
S11379341422A87A8100081880002118FF20FBF77C
S11379444BF8A97A611808753000F2BDF8B5060041
S11379540025964C2100163120001530FEF7E7FC73
S1137964B07A617D884232D2EFF3108772B6142262
S11379748100081880002118FF20FBF72DF8B17A44
S11379846118097D814200D1012587F31088002DF7
S113799404D1B27A717B2820FAF7EEFFB07A810021
S11379A4081880002018C27A017B0906090C0A43CE
S11379B40CD1B07A8100081880002518E87B0828C7
S11379C402DB00BFA5A502E06D1C00E0A2A528000F
S11379D4F2BDF8B50700002069460870574E31001F
S11379E4163130001530FEF7A2FC1422B87A810057
S11379F4081880003118FF20FAF7EEFFBA7A110054
S1137A0473181B7D834200D090E0707D824200D3C2
S1137A1490E08800401880003418E17A207B000646
S1137A24000C014306D0E17A207B0006000C0143DC
S1137A34481E00E00020E072000A20733800FAF7C0
S1137A446FFF5B490078C0000D18B87A81000818EC
S1137A548000305C002802D0012809D059E00221BA
S1137A64E87803F04CF9694608700120207050E06E
S1137A740021E87803F04AF900282DD10422B87AC9
S1137A8481000818800031181031E87803F01DF9DA
S1137A9469460870207C0002617C08436073000A14
S1137AA4A073607BA17B0906090C08438004800C45
S1137AB46073000AA073617BA07B0006000C014381
S1137AC42000401C00F09AF80020E0730C2002F01F
S1137AD44EFC002020701CE0E07B010008290BD13F
S1137AE4401CE073002301221146422000F07EFF73
S1137AF40C2002F0E9FB0CE0082902DA401CE073D4
S1137B0407E0E87803F0ACF8E87803F0B5F800206F
S1137B1420701422B87A8100081880003118FF20DC
S1137B24FAF75AFFB97A7118087503E0797B1720BC
S1137B34FAF722FF68460078F2BD00007429002099
S1137B44F8B5EFF3108472B6184D290016312800E5
S1137B541530FEF7ECFB461EB641F60F84F310888D
S1137B6400273800EFF3108400E00120002817D127
S1137B7472B614222900FF20FAF72EFF297D8842C9
S1137B8401D1012000E03800310006000E4084F3E6
S1137B9410883000E9D13A4611461720FAF7ECFE72
S1137BA409210420FEF722F8F1BD00007429002005
S1137BB4E87F020030B504000D000F2000E0401EF1
S1137BC480B2002807D0227A617A0906090C0A4394
S1137BD40241D107F3D52072000A6072227A607AD6
S1137BE40006000C02432100091D2800904001F006
S1137BF4CFF82100280001F0CBF830BD70B50400A3
S1137C040D00001DFAF78CFE06002000FAF788FE2A
S1137C142100091D7219101A01F0BAF82000001D80
S1137C24FAF77EFE227A617A0906090C0A43022ACB
S1137C3406DB227A617A0906090C0A43511E0841BB
S1137C44227A617A0906090C0A4301D0401C4010C7
S1137C54210001F09DF870BDFFFF0000FEFF00004D
S1137C64FEB50020614C0100A17061702170E070C8
S1137C7401F004FDFDF76AFF0020FDF791FF03F016
S1137C8449FA03F021FD03F00FFE03F033FE01F083
S1137C94A1F900F057FE05210020FDF7A7FF00F02D
S1137CA45BFCFAF749FE00BF52A000F0ADFB03F001
S1137CB4CBFE07210020FDF799FF4D488B4908604E
S1137CC48B488C4908608C489349086093489449CC
S1137CD40860944894490860944895490860954814
S1137CE49549086000225C212000001D01F03EF942
S1137CF400225C212000603001F038F900225C216C
S1137D048C204000201801F031F900225C21BA20B3
S1137D144000201801F02AF900225C21E8204000E8
S1137D24201801F023F900225C212000BC3001F06A
S1137D341DF9824F8025AD0000222900380001F08E
S1137D4415F9C426B600002231007D4801F00EF96D
S1137D54002229007B4801F009F9002231007A4805
S1137D6401F004F900222900784801F0FFF8002208
S1137D742900774801F0FAF8002208218B208000BA
S1137D84201801F0F3F804F0E1F8724E7078F02151
S1137D94084202D0992004F039F972B67078401C74
S1137DA4707004F03AFC04F0B3FC08210020FDF7E1
S1137DB41DFF002003F0E1F90220029001950097D1
S1137DC4654B782213A1241D200004F0DFFC62B665
S1137DD404F082FD6149884202D0FD2004F016F9C2
S1137DE40120CD49087004F0CEFDF7BD60100020D9
S1137DF46C63754E61A30200D13D02008915010034
S1137E0421D7010051540200950E0200ED31020005
S1137E14000000004D61696E205461736B00000022
S1137E2410B503F081FC0120FDF7BAFEFDF7A2FEB4
S1137E3403F046FD03F0EFF903F077FD9B4C607803
S1137E44012809D1A078012806D10020A0708B2034
S1137E548000201804F0D8FD2078012803D104F010
S1137E6450FE05F021F905210120FDF7BFFEE0785D
S1137E74012802D121A000F0C7FA06210120FDF750
S1137E84B5FE03F0F9FD19480068A44988421DD1E0
S1137E94184800681649884218D11F4800681649D2
S1137EA4884213D11E4800681C4988420ED11E48DA
S1137EB400681C49884209D11D4800681B4988424E
S1137EC404D11D4800681B49884204D0002211468D
S1137ED41620FAF751FD07210120FDF787FE012042
S1137EE4FDF7BAFE03F044FC10BD00007049002005
S1137EF4B5130A3B744B002047A3966EB32C0000C1
S1137F048D100200B7A50200000000007047012094
S1137F146649887070470000884E002020597D9976
S1137F248C50002022DF0BDEA0530020103F2B597D
S1137F34A455002021737565A857002074490020B6
S1137F44784B00208C4E002090500020A453002035
S1137F54A8550020E8E6FF1F657F000081A6000005
S1137F6410B5C34C2078401C207009210020FDF773
S1137F743DFE00F097FD00F0D1FD012807D000F08C
S1137F8488FB002803D1022000F0A8FD06E000F0DD
S1137F94C5FD022802D1002000F0A0FD0A21002022
S1137FA4FDF724FE00F0BAFD002807D002281FD0F4
S1137FB41ED303281FD0002000F090FD0320FDF7FA
S1137FC4EFFD00BF3AA000F01FFA1B210320FDF7C8
S1137FD40DFE0320FDF740FE00F03AF900F064F9C9
S1137FE400F086F800F006F901203049C87006E074
S1137FF400F084F903E000BF34A000F005FA00F0B7
S11380048DFD032801D000F0A3F90D210020FDF714
S1138014EDFD0020FDF720FE04F0FDF9246A08E0DC
S11380240A21200000F0F9F9040062B6200004F0EB
S113803446FB002003F056F90220FDF7B1FD00F0E1
S113804476FD01210220FDF7D1FD00F067FD032830
S113805403D000BF20A000F0D7F902210846FDF7A1
S1138064C5FD00BF20A000F0CFF903F028FA0028D2
S113807409D1FDF70DFE002805D101F0FFFD032110
S11380840220FDF7B3FD03F08AFB0220FDF7E4FDB3
S1138094002003F0CBF900F041FD0328C0D10221F4
S11380A4200000F0BAF90400BFE7000060100020CB
S11380B4A1150100C1ED0000110D0100352C0000D3
S11380C461030100B5A50200000000006103010082
S11380D4214A01000000000095EF000089540200C9
S11380E4D377010000000000CB030100000000006E
S11380F4E0B5012003F041F802200290C42080007E
S113810401909D4800909D4B282200BF04A1C748BC
S113811404F03CFB07BD00007D2D00206C63754E0C
S11381244170704D6772205461736B0010B500BFC9
S11381341CA000F069F94E48046A012003F0D2F847
S11381440420FDF72DFDFBF7C9FB00F042FA00F013
S1138154A0FA002805D1022000F0C0FC002001F0A0
S1138164AAFD00BF19A000F04FF902210420FDF775
S11381743DFDFBF701FA01F073FC01F048FD2E21EB
S11381840420FDF733FD0420FDF766FD012003F010
S11381944DF96421200000F040F9040004F08FFA42
S11381A4CBE7000065A10000F9170100D1A3020088
S11381B4EDA20200A1F70000DD27010071670200AF
S11381C4351D02007920020000000000A9180100F6
S11381D4F367020073F800000728010025A20000D9
S11381E4651D02007B200200F5A20200F50E0200C8
S11381F400000000E0B5022002F0BFFF022002905C
S1138204000201908A4800908A4B3C2297A18A4834
S113821404F0BCFA07BD000010B500BF0AA000F0CA
S1138224F3F81348046A022003F05CF807A000F092
S1138234EBF8022003F0FAF81421200000F0EDF822
S1138244040004F03CFAEEE7000000000000000023
S1138254E0B5022002900002019078480090784B27
S11382648C2200BF85A1774804F090FA07BD000072
S1138274E8E6FF1F38B5744C8B20800025182800CD
S113828405F034FE8DA000F0BFF80020A07001209A
S1138294607000BF8AA000F0B7F8280005F05EFE05
S11382A4280005F0ABFEF4E7E0B5032002F065FF17
S11382B4022002900002019064480090644B6422FE
S11382C471A1644804F062FA07BD000010B500BF50
S11382D47CA000F099F86048046A032003F002F8D3
S11382E479A000F091F8032003F0A0F80521200000
S11382F400F093F8040004F0E2F9EEE7E0B5052099
S113830402F03BFF02200290000201904F480090CB
S1138314524B3C225FA14F4804F038FA07BD0000D9
S113832410B500BF6BA000F06FF84B48046A052039
S113833402F0D8FF69A000F067F8052003F076F88E
S11383440A21200000F069F8040004F0B8F9EEE70B
S1138354E0B5042002F011FF02200290C420800042
S113836401903F4800903F4B502200BF4EA13E482D
S113837404F00CFA07BD0000784B002031810000A2
S113838470B50026350004F08BFB04F039FE00BF01
S113839453A000F039F801202B4908702E48046AD0
S11383A40EE000BF6AA000F02FF83500042003F0AB
S11383B43DF80521200000F030F8040004F07FF9B2
S11383C4042002F08FFF04F067FE00BF52A000F007
S11383D41BF86D1CEDB2012D06D0E2D3032D0BD096
S11383E406D3042D0CD0DCE74FA000F00DF8DDE734
S11383F44FA000F009F8D9E74FA000F005F8D5E73D
S113840450A000F001F8D1E710B5040001E0804762
S1138414241D20680100FAD110BD40180E4A126AC6
S113842400E04018131AFCD570470000C010002067
S1138434A85500201D8200001C1100208C4E002031
S1138444798200007811002060100020A4530020D9
S1138454D182000030120020E8E6FF1F25830000CB
S11384649050002085830000D41100204661737469
S11384744170704D6772205461736B00416E616C7E
S11384846F67205461736B004173796E6368205481
S113849461736B0050726F6772616D6D696E6720F2
S11384A45461736B00000000436F6D6D756E6963F6
S11384B46174696F6E205461736B000000000000E6
S11384C4000000000000000029D701005F2D000017
S11384D400000000E90B010000000000000000009F
